:040000006F10A022BB
:10000400000000000000000036020000360200007C
:1000140000000000360200000000000000000000A4
:10002400360200003602000000000000000000005C
:10003400360200000000000036020000000000004C
:100044003602000036020000360200000000000004
:1000540036020000360200003602000036020000BC
:1000640036020000360200003602000036020000AC
:10007400360200003602000036020000360200009C
:10008400360200003602000036020000360200008C
:10009400360200003602000036020000360200007C
:1000A400360200003602000036020000360200006C
:1000B400360200003602000036020000360200005C
:1000C4003602000008080000360200003602000074
:0C00D40036020000360200003602000078
:1000E000B7F700E09C4737F700E03E951C47898F43
:1000F000E3CE07FE828079714ECE5EC6B70910FF4F
:10010000B70B00F122D426D252CC56CA5AC862C4C8
:1001100066C206D64AD0AA84A14A37140140FD1B04
:10012000370C0003B70C0004FD19370B4000370AE9
:1001300030000327048093978401E18733777701A8
:1001400063DA0708336797012320E48003270480DC
:100150000945FD1A33773701336767012320E480AF
:10016000413703270480860493FAFA0F3377370167
:10017000336747012320E48093F4F40FE39B0AFAEA
:1001800003270480B70700F1FD177D8FB707000430
:100190005D8F2320E480832704800945B3F737016E
:1001A000B3E767012320F480253F83270480B25002
:1001B0009254B3F93701B3E9490123203481225421
:1001C0000259F249624AD24A424BB24B224C924CFB
:1001D000456182803367870185BF411122C437148E
:1001E000014003270480B70700F126C29384F7FF7C
:1001F000658FB707000306C65D8F2320E48009459D
:10020000C53503270480B70710FFFD177D8FB7079B
:1002100040005D8F2320E4800945D9358327048081
:1002200037070004B240E58FD98F2320F4802244A1
:1002300092444101828001A09387C18603C7470190
:1002400083C65701158F1377F70F6368A700DC4744
:100250000A053E950355E5FF8280198D1947330540
:10026000E5029C4B3E950355A5FF82809387C1868E
:1002700003C7470183C65701158F1377F70F6368CC
:10028000A700DC470A053E950355E5FF8280198DDE
:1002900019473305E5029C4B3E950355C5FF828007
:1002A0009387C18603C7470183C65701158F13770C
:1002B000F70F6368A700DC470A053E950355C5FFA5
:1002C0008280198D19473305E5029C4B3E950355F5
:1002D000E5FF8280B77702401307200A2396E700E4
:1002E0002397E7009387C186A3840700238507002F
:1002F00023840700238A0700A38A070023A007009E
:1003000023A207001387418323810702D8C7A38153
:1003100007021387C1802382070298CB0547238BEE
:10032000E70023800702238DE700A38DE700056720
:1003300013078738239EE700239FE7008280B77763
:10034000024003D70700118B21C303D7E700420700
:100350004183136707012397E700B777024013072C
:10036000F0042391E7004205A38207004181239313
:10037000A700A384070003C747001377F70F13678D
:1003800037002382E700828003D7C70042074183FA
:10039000136707012396E700C9B7797122D426D2E3
:1003A0004AD04ECE52CC56CA9387C18606D65AC87A
:1003B0005EC68569238007029304F00F1384C1860B
:1003C0009389892B13894183138A8181834B04028A
:1003D00093FBFB0F63960B00FD1493F4F40F91EC69
:1003E000B25022540259F249624AD24A424BB24BAD
:1003F0003335900092544561828037B50300130570
:100400000598F939B777024003D7C70042074183FF
:100410001377E7F1420741832396E70003D7C7002C
:1004200042074183136707042396E70083D6C7007A
:1004300003D7E700C206420741831377E7F142077B
:1004400041832397E70003D7E700C1824207418336
:10045000136707042397E70083D7E7000947858BD5
:1004600099E313F716008357840185468507C20771
:10047000C183231CF4001C406393D7046318F7085E
:1004800023050400834794009546850793F7F70FEB
:10049000A304F4008347940093F7F70F63F1F60287
:1004A000A304040089471CC0B776024083D7060026
:1004B000C207C183ED9BC207C1832390F60014409D
:1004C000854763FBD70249E78347840015478507C3
:1004D00093F7F70F2304F4008347840093F7F70F93
:1004E000637CF7002304040023200400B7E700E046
:1004F0003707020023A2E718032B04001C402547FE
:10050000636FF7088A07CE979C4382878947A304C5
:100510000400631CF7028347A4009546850793F700
:10052000F70F2305F4008347A40093F7F70FE3F8D0
:10053000F6F82305040018C0B776024083D70600FA
:10054000C207C18393E747008DBF2305040085BF21
:100550002304040055B7B7E700E03707020023A2E1
:10056000E7188D3B85471CC01DA858401C406308F8
:10057000F70237770240930770072311F70083478C
:10058000470093F7C70F93E727002302F700B7E769
:1005900000E0A38807423707020023A2E7102322C6
:1005A00064012DB58347340293F7F70FEDDBA30108
:1005B0000402B7E700E0370702000328C40014482C
:1005C00023A2E718A30A0400B70800F0370300C00D
:1005D000294E93052003194613054006834744011D
:1005E00093F7F70F63EAFB00B7E700E03707020075
:1005F00023A2E710914785BF13972B00B307EA00AA
:100600009C43B3FE170163986E060347540193DEC3
:10061000170193FEFE0F1377F70F3307C702B38E50
:10062000AE0236972311D7010347540193DE8700AA
:1006300093FEFE0F1377F70F3307C70293F7F70701
:10064000B38EAE0236972310D70103475401B38708
:10065000B7021377F70F3307C70236972312F70055
:1006600083475401850793F7F70FA30AF400850B1E
:1006700093FBFB0FA5B793FEF73FA98393F7F73FD3
:10068000B38ECE034297B387B7022310D70123114D
:10069000F700F1BF58401C406309F70A0347A40163
:1006A000834624020565834564019D8A93072500DE
:1006B000A606DD8EA1679387F7E1FD8E8D899A05E9
:1006C00093F6F6F3CD8E83454401834754011376A8
:1006D000F70F93F5F50F93F7F70F9D8D720763D022
:1006E000C5088357C401D1457D15C207C183B3D75F
:1006F000B702E98FA6075D8F834754018345440104
:1007000093F7F70FB29793F5F50F8D8FFD178A07C3
:10071000CA9783D7070013062003B3D7C70237064B
:10072000000393F7F707D18F370600FD130606F88D
:10073000718F5D8F938781842391E700418323909C
:10074000D7002392E7001945DD3E8347440293F723
:10075000F70FE38607E423020402954729B59307C0
:10076000F6FF8A07CA9783D707002946B705000313
:10077000B3D7C70293F7F73F1396A700CD8FD18F5A
:100780004DBF8347340293F7F70FE38A07E0A301D5
:100790000402A5471CC0231C040011B58547230093
:1007A000F4020347A4018347B4011377F70F93F7CB
:1007B000F70F631CF7000357C4018357E401420796
:1007C000C2074183C183E30CF7DC8347A4010945D9
:1007D00093F7F70FA30DF4008357C401C207C18339
:1007E000231FF4002300040283472402034764010B
:1007F0009D8BA6070D8B1A0793E77700D98F23945B
:10080000F184353EA94785B35D713ED0B77702408C
:100810003AD203C7970086C696C49AC29EC022DE0B
:1008200026DC2ADA2ED832D636D442CE46CC4ACA74
:1008300072C876C67AC47EC21377070235CB03C767
:10084000970085460D8B631BD70483D7A700954679
:10085000C207C18363F4F60403D4818413898184BD
:1008600093160401C1869384C18663CE060E1D666D
:10087000618E9376F401631006128D476383F60E42
:1008800099476388F6106390E60E2382D40283C7EB
:100890002402850793F7F70F2381F402377702408C
:1008A0008347970093F7F70F93E70702A304F70036
:1008B000B777024003C7970062076187635D07044B
:1008C00003D7C7008546420741833D9B42074183CA
:1008D0002396E70003D7E700420741833D9B420789
:1008E00041832397E700130770072391E70003C7AD
:1008F00047001377C70F136727002382E70013878A
:10090000C186A301D70203C79700136707F81377BF
:10091000F70FA384E700377702408347970093F7E8
:10092000070491CB8347970093F7F70F93E70704EA
:10093000A304F70045327254B640A64216438643DC
:10094000E2545255C2553256A25612578257724837
:10095000E2485249424EB24E224F924F61617300BB
:1009600020309D479CC01305005AEFF06FF7A3811C
:10097000040203C76401935794009D8BA6070D8B57
:100980001A0793E71700D98F09452310F900453A54
:1009900031B7A147C1BFE398E6FC0D4798C0135794
:1009A000C4001D8B238AE400135764000D8B238B36
:1009B000E40093878184014771469386818185078E
:1009C000E303C7FA03C51700B385E60005072380D4
:1009D000A500F5B7411122C43714014083270480D4
:1009E000370700F17D17F98F3707000306C6D98F47
:1009F0002320F4800945EFF0AFEE8327048037070A
:100A000010FF7D17F98F37073000D98F2320F4802E
:100A10002244B2401305800741016FF0CFED411130
:100A200022C426C206C69D47AA84014463E3B700D8
:100A30002E8423849180A3848180693F0145EFF057
:100A40008FEB130404FB1375F40FEFF0CFEA13F5EB
:100A5000F400EFF04FEA13D5440013650501EFF001
:100A60008FE92244B240924441016FF00FF74111E7
:100A700022C44AC006C626C221441309F00F7D14C1
:100A80001374F40F63182401B240224492440249C3
:100A900041018280A285014559372D3F130500048D
:100AA000EFF06FE593040008FD14014593F4F40F93
:100AB000EFF06FE4F5F8EFF04FF2A28501458537CE
:100AC0007DBF01150111420541814EC603C78180DA
:100AD00022CC131425002A94420406CE26CA4AC802
:100AE0009307A00741809389818063F9E70083C55C
:100AF00091800145850593F5F50F1537E13D130507
:100B00000004EFF04FDF930454000145C20405696F
:100B1000EFF06FDEC18013090938A287CA97050478
:100B200003C5070042044180EFF0EFDCE39784FE49
:100B3000EFF0AFEA83C70900F240624499072380CF
:100B4000F900D2444249B24905618280AA8793F7ED
:100B500007061375F50791C3ADB7A9476319F500EB
:100B600083C59180850593F5F50F01454DBDB547CA
:100B70006315F50083C59180CDBF8280014863DC99
:100B80000500B305B040E205E18563560500330575
:100B9000A0401308D00293080002635806003306F1
:100BA000C0406206618693080003D1478146254E06
:100BB00063D3C70A8280BE86B377B50213F7F70FF7
:100BC0006370FE08130777033355B50200101377DF
:100BD000F70F3303D400938716002306E3FE93F741
:100BE000F70F71F9630C0800130700036388E8002E
:100BF000A2978906238607FF93F7F60F3E8763C403
:100C0000C704630D0800930600036399D80014100D
:100C10008507369793F7F70F230607FF1384F7FF2F
:100C200064001374F40F2694034504000537A2876B
:100C30007D14E39BF4FEB2502254925445618280AD
:100C40001307070351B714108507369793F7F70F6B
:100C5000230617FF65B7797106D622D426D2A9BF1D
:100C6000411122C4370400208345140026C2AA84FF
:100C7000FD1593F5F50F1305800706C64D331305D3
:100C8000000281351387C18683464701930714000C
:100C900093F6F60F63F4960205472380E70083C5B9
:100CA000070013058007FD1593F5F50F8D3B2244D2
:100CB000B24092441305C003410121B581E40347CA
:100CC0004701E1BF23809700D9BF411126C2B70475
:100CD00000209384040083C5040022C42A84FD15E7
:100CE00093F5F50F014506C61D3B13050002D13BE8
:100CF0009305F4FF014593F5F50F23808400053338
:100D00002244B24092441305A00241015DBB1D7113
:100D100026DAA40022DC4ED652D456D25AD05ECE69
:100D200062CC06DE4AD82E84B2C4B6C6BAC8BECAE1
:100D3000C2CCC6CE26C693095002130A0003A54AA8
:100D4000294B930B3007130C30060345040009EDC3
:100D5000F2506254D2544259B259225A925A025B0A
:100D6000F24B624C25618280630635010504F93B34
:100D70002689A1A883471400638C37010904014721
:100D8000639647018347040005470504014639A8D7
:100D9000130550023D33834724000D04CDB7B3073C
:100DA00066030504B6973E968347F4FF938607FDD6
:100DB000E3F7DAFE19C33306C040639D7701138958
:100DC0004400844003C5040019E1CA84BDBF850402
:100DD000B53BCDBF6398870103C504001389440068
:100DE000B533E5B7B5D7130750076389E702130793
:100DF0004006638DE700130780076387E702130748
:100E000020068945638DE7007D149DB7620613892E
:100E100044006186D9558840953345BFA94562068F
:100E2000138944006186C5BFC145D5BF4111B707CD
:100E300000204AC003C9170026C2AA844A8522C4DA
:100E400006C6EFF06FBF13842180636895024A8560
:100E5000EFF08FBE2310A40099457945C93603569B
:100E600004002244B2409244024985650565938599
:100E7000052E1305C5B4410159BD4A85EFF00FBFDA
:100E800063E6A4004A85EFF06FBEE9B72310940033
:100E9000E1B7797126D256CAB704004022D44AD0AD
:100EA0004ECE52CC06D60544D936938AC186056902
:100EB0008569FD14056A83C74A0193F7F70F63F448
:100EC0008702B707002003C51700593BB70700206A
:100ED0002254B25092540259F249624AD24A03C58E
:100EE00007004561DDB383C74A0103C75A01998FE3
:100EF00093F7F70F63EA870203A7CA00B3079400CA
:100F00008A07BA9783D62700228536C6EFF04FB9F5
:100F1000B2462A8722869305CA2E1305C9B4050452
:100F2000FD331374F40F41BF2285EFF0EFB02AC6F2
:100F30002285EFF0AFB3B2462A8722869385093027
:100F4000E9BFB717014003A70780B70610FFFD16DA
:100F50007971758FB706400006D622D426D24AD0C2
:100F60004ECE52CC56CA5AC85EC662C466C26AC069
:100F7000558F23A0E78003A70780B70600F1FD1671
:100F8000758FB7060004558F1386078023A0E7806E
:100F9000930700025CCA37A52400930700045CCACB
:100FA000130505F0EFF0CF93353401450569014491
:100FB000EFF06F94814413090956AD49B3079900C6
:100FC00003C507008504EFF00F93E39934FFEFF0BA
:100FD000CFA0713C05698565938545311305C9B47A
:100FE0003D33B7170240984FB7060200B7140140CF
:100FF0001367170198CFD84BCA8A558FD8CB83A7D0
:1010000044C0B706004437070140A207A183D58F2B
:1010100023A2F4C01C4F93E707301CCF9387818431
:10102000C20737770240C1832318F700F977A10779
:101030002310F700F157A304F700EFF00FB601E912
:101040008565938545321305C9B4D13101A0913529
:1010500083A70480B706F1FFFD16C19B93E78700C5
:1010600023A0F480854723A8F48083A70480B70BCE
:10107000002093F7F7F093E7070823A0F48089474F
:1010800023A8F48083A704809389C186856CF58F9B
:10109000B7060800D58F23A0F480C14723A8F480A9
:1010A000056DB714014083A78480858B95CB83A7FA
:1010B0008480898B99EB03C51B0005051375F50F1B
:1010C000453683A78480898BEDDF83A78480C18B1D
:1010D0009DC33755070013050530EFF06F80E1B76A
:1010E00003C51B007D151375F50F9D3E83A78480F6
:1010F000858BEDDF6DBF83C7490103C7590103C964
:101100001B00998F93F7F70F63E7270303A7C90025
:1011100093172900238D2901BA9783D7E7FF239ED0
:10112000F900EFF08FA719C14A85453683A784805F
:10113000C18BEDDF79BFEFF09F934A869385CC3268
:101140001385CAB4E9364A85EFF00F8F2A869305D6
:101150004D341385CAB4653E4A85EFF02F918565FD
:101160002A86938585351385CAB455364A85EFF0AE
:101170002F9385652A869385C5361385CAB4413E6B
:1011800003D52180138B2180553183A78480C18BA7
:10119000EDDF375A070013050A30EFE07FF4130C38
:1011A000F00F130A0A3083A7848013870480035545
:1011B0000B00C18B91EF238D2901239EA900EFF035
:1011C000CF9D09C5B707002023802701D931B9BFBA
:1011D0001C47858B85E751054205418181397D1486
:1011E0001374F40F63148401094475BF83A78480CA
:1011F000858BFDFB5285EFE0BFEED5B71C47898B91
:1012000095E331154205418115317D141374F40FB6
:10121000E30C84FD83A78480898BF9F75285EFE086
:101220003FECE5B713042003BDBF8567938727F420
:1012300097F1FF1F9381015D17410020130181DCAD
:101240007D45731005BC13058008732005308D455E
:1012500073904580130540004D8D73105530739089
:101260001734B70700200567938707001307C75691
:101270009386818063E8D7029387818013874189B1
:1012800063E8E702B7270240094798C3B71702404F
:1012900023A2070037F700E0954614C3714798CFA3
:1012A0007300203010431107910723AEC7FED9B752
:1012B000910723AE07FEE9B7560500009E05000022
:1012C0006A050000A4050000940600009E050000C9
:1012D0009E0500009E050000820700009C0700009C
:1012E0003E2536646D56203C000000002028256411
:1012F000292536646D56202535646D412000000097
:10130000205B25645D2536646D562D2535646D564C
:1013100020000000436F6E6E656374696E672E2E49
:101320002E0000004641494C4544000053656C6561
:10133000637420766F6C74616765206F66205B252F
:10134000645D0A006D696E20766F6C746167653A42
:101350002537646D560000006D617820766F6C74DF
:101360006167653A2537646D560000006D6178202D
:1013700063757272656E743A2537646D41000000C2
:10138000000000000000005F0000000700070014DC
:101390007F147F14242A7F2A12231308646236499B
:1013A0005522500004030000001C2241000041228D
:1013B0001C0014083E081408083E0808008060005D
:1013C00000080808080800606000002010080402F7
:1013D0003E5149453E44427F404042615149462288
:1013E000414949361814127F102F494949313E4965
:1013F00049493203017109073649494936264949A5
:10140000493E0036360000008068000000081422C3
:1014100000141414141400221408000201510906C7
:101420003E415D555E7C1211127C7F494949363E32
:10143000414141227F4141221C7F494949417F0965
:101440000909013E4149493A7F0808087F41417F27
:1014500041412040413F017F081422417F404040EC
:10146000407F020C027F7F0408107F3E4141413ED5
:101470007F090909063E4141C1BE7F091929462657
:101480004949493201017F01013F4040403F1F204F
:1014900040201F3F4038403F631408146307087022
:1014A00008076151494543007F414100020408108B
:1014B000200041417F0008040204084040404040B1
:1014C000000609090620545454787F4444443838AF
:1014D00044444428384444447F385454541808FE43
:1014E00009010218A4A4A4787F0404047800447DB0
:1014F00040000080847D00417F10284400417F40EF
:10150000007C047C04787C04040478384444443827
:10151000FC2424241818242424FC7C08040408082F
:1015200054545420043F4440203C4040403C1C2044
:1015300040201C3C4030403C44281028441CA0A0C3
:10154000A07C4464544C4408083641410000FF002C
:101550000041413608080804081008FFFFFFFFFF9C
:0C156000A83F8D142000DA12A1C8AF00D3
:08156C000101881300000000DA
:00000001FF
