:040000006F108024D9
:10000400000000000000000036020000360200007C
:1000140000000000360200000000000000000000A4
:10002400360200003602000000000000000000005C
:10003400360200000000000036020000000000004C
:100044003602000036020000360200000000000004
:1000540036020000360200003602000036020000BC
:1000640036020000360200003602000036020000AC
:10007400360200003602000036020000360200009C
:10008400360200003602000036020000360200008C
:10009400360200003602000036020000360200007C
:1000A400360200003602000036020000360200006C
:1000B400360200003602000036020000360200005C
:1000C400360200001E08000036020000360200005E
:0C00D40036020000360200003602000078
:1000E000B7F700E09C4737F700E03E951C47898F43
:1000F000E3CE07FE828079714ECE5EC6B70910FF4F
:10010000B70B00F122D426D252CC56CA5AC862C4C8
:1001100066C206D64AD0AA84A14A37140140FD1B04
:10012000370C0003B70C0004FD19370B4000370AE9
:1001300030000327048093978401E18733777701A8
:1001400063DA0708336797012320E48003270480DC
:100150000945FD1A33773701336767012320E480AF
:10016000413703270480860493FAFA0F3377370167
:10017000336747012320E48093F4F40FE39B0AFAEA
:1001800003270480B70700F1FD177D8FB707000430
:100190005D8F2320E480832704800945B3F737016E
:1001A000B3E767012320F480253F83270480B25002
:1001B0009254B3F93701B3E9490123203481225421
:1001C0000259F249624AD24A424BB24B224C924CFB
:1001D000456182803367870185BF411122C437148E
:1001E000014003270480B70700F126C29384F7FF7C
:1001F000658FB707000306C65D8F2320E48009459D
:10020000C53503270480B70710FFFD177D8FB7079B
:1002100040005D8F2320E4800945D9358327048081
:1002200037070004B240E58FD98F2320F4802244A1
:1002300092444101828001A09387C18603C7470190
:1002400083C65701158F1377F70F6368A700DC4744
:100250000A053E950355E5FF8280198D1947330540
:10026000E5029C4B3E950355A5FF82809387C1868E
:1002700003C7470183C65701158F1377F70F6368CC
:10028000A700DC470A053E950355E5FF8280198DDE
:1002900019473305E5029C4B3E950355C5FF828007
:1002A0009387C18603C7470183C65701158F13770C
:1002B000F70F6368A700DC470A053E950355C5FFA5
:1002C0008280198D19473305E5029C4B3E950355F5
:1002D000E5FF8280B77702401307200A2396E700E4
:1002E0002397E7009387C186A3840700238507002F
:1002F00023840700238A0700A38A070023A007009E
:1003000023A207001387418323810702D8C7A38153
:1003100007021387C1802382070298CB0547238BEE
:10032000E70023800702238DE700A38DE700056720
:1003300013078738239EE700239FE7008280B77763
:10034000024003D70700118B21C303D7E700420700
:100350004183136707012397E700B777024013072C
:10036000F0042391E7004205A38207004181239313
:10037000A700A384070003C747001377F70F13678D
:1003800037002382E700828003D7C70042074183FA
:10039000136707012396E700C9B7797122D426D2E3
:1003A0004AD04ECE52CC56CA9387C18606D65AC87A
:1003B0005EC6239F07000569238007029304F00FA0
:1003C0001384C1861309892D93894183138A8181FE
:1003D000834B040293FBFB0F63960B00FD1493F415
:1003E000F40F91ECB25022540259F249624AD24AB7
:1003F000424BB24B3335900092544561828037B501
:10040000030013050598E939B777024003D7C70001
:10041000420741831377E7F1420741832396E700C0
:1004200003D7C70042074183136707042396E700F9
:1004300083D6C70003D7E700C2064207418313777C
:10044000E7F1420741832397E70003D7E700C18222
:1004500042074183136707042397E70083D7E70028
:100460000947858B99E313F7160083578401854666
:100470008507C207C183231CF4001C406393D70483
:100480006318F70823050400834794009546850701
:1004900093F7F70FA304F4008347940093F7F70F43
:1004A00063F1F602A304040089471CC0B77602403A
:1004B00083D70600C207C183ED9BC207C183239087
:1004C000F6001440854763FBD70249E78347840061
:1004D0001547850793F7F70F2304F400834784003B
:1004E00093F7F70F637CF700230404002320040034
:1004F000B7E700E03707020023A2E718032B040048
:100500001C402547636FF7088A07CA979C43828778
:100510008947A3040400631CF7028347A40095469F
:10052000850793F7F70F2305F4008347A40093F79B
:10053000F70FE3F8F6F82305040018C0B776024079
:1005400083D70600C207C18393E747008DBF230509
:10055000040085BF2304040055B7B7E700E0370760
:10056000020023A2E718BD3385471CC01DA85840D0
:100570001C406308F7023777024093077007231186
:10058000F7008347470093F7C70F93E7270023023D
:10059000F700B7E700E0A38807423707020023A26D
:1005A000E710232264012DB58347340293F7F70F38
:1005B000EDDBA3010402B7E700E0370702000328E0
:1005C000C400144823A2E718A30A0400B70800F0E7
:1005D000370300C0294E9305200319461305400632
:1005E0008347440193F7F70F63EAFB00B7E700E0A6
:1005F0003707020023A2E710914785BF13972B000E
:10060000B307EA009C43B3FE170163986E060347E5
:10061000540193DE170193FEFE0F1377F70F330794
:10062000C702B38EAE0236972311D7010347540198
:1006300093DE870093FEFE0F1377F70F3307C70291
:1006400093F7F707B38EAE0236972310D70103470F
:100650005401B387B7021377F70F3307C7023697F2
:100660002312F70083475401850793F7F70FA30A76
:10067000F400850B93FBFB0FA5B793FEF73FA9830F
:1006800093F7F73FB38ECE034297B387B702231099
:10069000D7012311F700F1BF58401C406300F70C4D
:1006A0008347A401834624020565130725009D8A1C
:1006B000A606D98E21671307F7E1F98E0347640177
:1006C00093F6F6F313F6F70F0D8B1A07D98E03473F
:1006D0004401034854019395C7011377F70F13782A
:1006E000F80F330707416355C7088357C4015147C3
:1006F000C207C183B3D7E7021307F5FFF98FA60737
:1007000003475401CD8F834544011377F70F329788
:1007100093F5F50F0D8F19467D173307C702138622
:10072000C180329703574700130620033357C7028F
:10073000370600031377F707518F370600FD1306BE
:1007400006F8F18FD98F138781842311F700C183B5
:100750002310D7002312F7001945D53683474402EA
:1007600093F7F70FE38F07E2230204029547F5BBE7
:100770001307F6FF0A074E9703570700A9473706E6
:1007800000033357F7021377F73F9317A700518FF2
:100790005D8FB367B70045BF8347340293F7F70F08
:1007A000E38107E0A3010402A5471CC0231C040049
:1007B000CDBB85472300F4020347A4018347B4015E
:1007C0001377F70F93F7F70F631CF7000357C40174
:1007D0008357E4014207C2074183C183E303F7DC87
:1007E0008347A401094593F7F70FA30DF40083573E
:1007F000C401C207C183231FF400230004028347FE
:100800002402034764019D8BA6070D8B1A0793E70B
:100810007700D98F2394F1841D36A947B9B35D7150
:100820003ED0B77702403AD203C7970086C696C437
:100830009AC29EC022DE26DC2ADA2ED832D636D4E0
:1008400042CE46CC4ACA72C876C67AC47EC21377F4
:10085000070235CB03C7970085460D8B631BD70472
:1008600083D7A7009546C207C18363F4F60403D477
:1008700081841389818493160401C1869384C1867F
:1008800063CE060E1D66618E9376F4016310061228
:100890008D476383F60E99476388F6106390E60EE2
:1008A0002382D40283C72402850793F7F70F23819D
:1008B000F402377702408347970093F7F70F93E7E7
:1008C0000702A304F700B777024003C79700620747
:1008D0006187635D070403D7C700854642074183EC
:1008E0003D9B420741832396E70003D7E700420779
:1008F00041833D9B420741832397E700130770071D
:100900002391E70003C747001377C70F136727003A
:100910002382E7001387C186A301D70203C797008C
:10092000136707F81377F70FA384E70037770240C0
:100930008347970093F7070491CB8347970093F77A
:10094000F70F93E70704A304F70069327254B64027
:10095000A64216438643E2545255C2553256A25619
:10096000125782577248E2485249424EB24E224FC5
:10097000924F6161730020309D479CC01305005A5F
:10098000EFF00FF6A381040203C7640193579400AC
:100990009D8BA6070D8B1A0793E71700D98F094582
:1009A0002310F900693A31B7A147C1BFE398E6FCCB
:1009B0000D4798C01357C4001D8B238AE4001357BA
:1009C00064000D8B238BE40093878184014771467B
:1009D000938681818507E303C7FA03C51700B385B2
:1009E000E60005072380A500F5B7411122C437149E
:1009F000014083270480370700F17D17F98F3707FF
:100A0000000306C6D98F2320F4800945EFF04FED8F
:100A100083270480370710FF7D17F98F37073000D1
:100A2000D98F2320F4802244B2401305800741016E
:100A30006FF06FEC411122C426C206C69D47AA84FE
:100A4000014463E3B7002E8423849180A3848180D2
:100A5000693F0145EFF02FEA130404FB1375F40F0F
:100A6000EFF06FE913F5F400EFF0EFE813D5440071
:100A700013650501EFF02FE82244B2409244410192
:100A80006FF0AFF5411122C44AC006C626C2214408
:100A90001309F00F7D141374F40F63182401B2408E
:100AA00022449244024941018280A285014559377E
:100AB0002D3F13050004EFF00FE493040008FD142C
:100AC000014593F4F40FEFF00FE3F5F8EFF0EFF0DA
:100AD000A285014585377DBF011501114205418180
:100AE0004EC603C7818022CC131425002A944204E9
:100AF00006CE26CA4AC89307A00741809389818001
:100B000063F9E70083C591800145850593F5F50FED
:100B10001537E13D13050004EFF0EFDD93045400B9
:100B20000145C2040569EFF00FDDC1801309093AE0
:100B3000A287CA97050403C5070042044180EFF06D
:100B40008FDBE39784FEEFF04FE983C70900F240A3
:100B5000624499072380F900D2444249B2490561B1
:100B60008280AA8793F707061375F50791C3ADB77F
:100B7000A9476319F50083C59180850593F5F50FA5
:100B800001454DBDB5476315F50083C59180CDBFC7
:100B90008280014863DC0500B305B040E205E185D1
:100BA000635605003305A0401308D00293080002E5
:100BB000635806003306C04062066186930800034E
:100BC000D1478146254E63D3C70A8280BE86B3775C
:100BD000B50213F7F70F6370FE0813077703335559
:100BE000B50200101377F70F3303D4009387160074
:100BF0002306E3FE93F7F70F71F9630C0800130760
:100C000000036388E800A2978906238607FF93F70D
:100C1000F60F3E8763C4C704630D08009306000304
:100C20006399D80014108507369793F7F70F2306BA
:100C300007FF1384F7FF64001374F40F2694034531
:100C400004000537A2877D14E39BF4FEB2502254C2
:100C50009254456182801307070351B7141085072A
:100C6000369793F7F70F230617FF65B7797106D606
:100C700022D426D2A9BF411122C4370400208345C3
:100C8000140026C2AA84FD1593F5F50F13058007FD
:100C900006C64D331305000281351387C18683468E
:100CA00047019307140093F6F60F63F49602054785
:100CB0002380E70083C5070013058007FD1593F522
:100CC000F50F8D3B2244B24092441305C00341010D
:100CD00021B581E403474701E1BF23809700D9BFD5
:100CE000411126C2B70400209384040083C5040088
:100CF00022C42A84FD1593F5F50F014506C61D3B58
:100D000013050002D13B9305F4FF014593F5F50F60
:100D10002380840005332244B24092441305A0028C
:100D200041015DBB1D7126DAA40022DC4ED652D4EF
:100D300056D25AD05ECE62CC06DE4AD82E84B2C4D9
:100D4000B6C6BAC8BECAC2CCC6CE26C69309500221
:100D5000130A0003A54A294B930B3007130C3006E6
:100D60000345040009EDF2506254D2544259B2597D
:100D7000225A925A025BF24B624C256182806306D2
:100D800035010504F93B2689A1A883471400638C2B
:100D9000370109040147639647018347040005476B
:100DA0000504014639A8130550023D33834724004A
:100DB0000D04CDB7B30766030504B6973E96834787
:100DC000F4FF938607FDE3F7DAFE19C33306C0404C
:100DD000639D770113894400844003C5040019E131
:100DE000CA84BDBF8504B53BCDBF6398870103C5E9
:100DF000040013894400B533E5B7B5D7130750078E
:100E00006389E70213074006638DE7001307800735
:100E10006387E702130720068945638DE7007D1489
:100E20009DB76206138944006186D9558840953381
:100E300045BFA9456206138944006186C5BFC14507
:100E4000D5BF4111B70700204AC003C9170026C209
:100E5000AA844A8522C406C6EFF00FBE13842180FF
:100E6000636895024A85EFF02FBD2310A4009945D1
:100E70007945C936035604002244B24092440249DF
:100E80008565056593850530130525B6410159BD76
:100E90004A85EFF0AFBD63E6A4004A85EFF00FBDD1
:100EA000E9B723109400E1B7797126D256CAB70486
:100EB000004022D44AD04ECE52CC06D60544D93674
:100EC000938AC18605698569FD14056A83C74A014D
:100ED00093F7F70F63F48702B707002003C51700E5
:100EE000593BB70700202254B25092540259F2499C
:100EF000624AD24A03C507004561DDB383C74A0190
:100F000003C75A01998F93F7F70F63EA870203A784
:100F1000CA00B30794008A07BA9783D627002285B0
:100F200036C6EFF0EFB7B2462A8722869305CA305D
:100F3000130529B60504FD331374F40F41BF228550
:100F4000EFF08FAF2AC62285EFF04FB2B2462A8764
:100F5000228693850932E9BFB717014003A70780AE
:100F6000B70610FFFD167971758FB706400006D6DB
:100F700022D426D24AD04ECE52CC56CA5AC85EC6C9
:100F800062C466C26AC0558F23A0E78003A70780AA
:100F9000B70600F1FD16758FB7060004558F13864E
:100FA000078023A0E780930700025CCA37A52400CE
:100FB000930700045CCA130505F0EFF06F92353417
:100FC000014505690144EFF00F9381441309095865
:100FD000AD49B307990003C507008504EFF0AF9151
:100FE000E39934FFEFF06F9F713C05698565938548
:100FF0004533130529B63D33B7170240984FB7065E
:101000000200B71401401367170198CFD84BCA8A62
:10101000558FD8CB83A744C0B7060044370701409B
:10102000A207A183D58F23A2F4C01C4F93E70730FA
:101030001CCF93878184C20737770240C18323186E
:10104000F700F977A1072310F700F157A304F70081
:10105000EFF0AFB401E9856593854534130529B6F2
:10106000D13101A0913583A70480B706F1FFFD16A9
:10107000C19B93E7870023A0F480854723A8F480D1
:1010800083A70480B70B002093F7F7F093E70708D6
:1010900023A0F480894723A8F48083A70480938940
:1010A000C186856CF58FB7060800D58F23A0F48024
:1010B000C14723A8F480056DB714014083A784803D
:1010C000858B85CF83A78480898B99EB03C51B0013
:1010D00005051375F50F453683A78480898BEDDFF1
:1010E00083A78480C18B8DC7EFF02FAB37550700E6
:1010F00013050530EFE0DFFED1B703C51B007D15FA
:101100001375F50F8D3E83A78480858BEDDF5DBF62
:1011100083C7490103C7590103C91B00998F93F77E
:10112000F70F63E7270303A7C90093172900238D4F
:101130002901BA9783D7E7FF239EF900EFF0EFA5C7
:1011400019C14A85713E83A78480C18BEDDF69BFD9
:10115000EFF05F934A869385CC3413852AB6D9364F
:101160004A85EFF06F8D2A8693054D3613852AB692
:10117000553E4A85EFF08F8F85652A8693858537A2
:1011800013852AB645364A85EFF08F9185652A8604
:101190009385C53813852AB6713603D52180138B04
:1011A0002180453183A78480C18BEDDF375A07004A
:1011B00013050A30EFE0DFF2130CF00F130A0A30C8
:1011C00083A784801387048003550B00C18B91EFA4
:1011D000238D2901239EA900EFF02F9C09C5B70795
:1011E000002023802701C931B9BF1C47858B95E7B3
:1011F000510542054181B1317D141374F40F63161A
:1012000084010944EFF06F9965BF83A78480858BC3
:10121000EDFB5285EFE0DFECC5B71C47898B95E30A
:1012200031154205418131397D141374F40FE30AFD
:1012300084FD83A78480898BE9F75285EFE05FEA1C
:10124000E5B7130420037DBF8567938787F597F182
:10125000FF1F9381215B174100201301A1DA7D4517
:10126000731005BC13058008732005308D457390FD
:101270004580130540004D8D731055307390173421
:10128000B70700200567938707001307C7589386A1
:10129000818063E8D702938781801387418963E85F
:1012A000E702B7270240094798C3B717024023A2B5
:1012B000070037F700E0954614C3714798CF7300D5
:1012C000203010431107910723AEC7FED9B791070D
:1012D00023AE07FEE9B700005A050000A205000092
:1012E0006E050000A805000098060000A205000099
:1012F000A2050000A205000098070000B207000048
:101300003E2536646D56203C0000000020282564F0
:10131000292536646D56202535646D412000000076
:10132000205B25645D2536646D562D2535646D562C
:1013300020000000436F6E6E656374696E672E2E29
:101340002E0000004641494C4544000053656C6541
:10135000637420766F6C74616765206F66205B250F
:10136000645D0A006D696E20766F6C746167653A22
:101370002537646D560000006D617820766F6C74BF
:101380006167653A2537646D560000006D6178200D
:1013900063757272656E743A2537646D41000000A2
:1013A000000000000000005F0000000700070014BC
:1013B0007F147F14242A7F2A12231308646236497B
:1013C0005522500004030000001C2241000041226D
:1013D0001C0014083E081408083E0808008060003D
:1013E00000080808080800606000002010080402D7
:1013F0003E5149453E44427F404042615149462268
:10140000414949361814127F102F494949313E4944
:101410004949320301710907364949493626494984
:10142000493E0036360000008068000000081422A3
:1014300000141414141400221408000201510906A7
:101440003E415D555E7C1211127C7F494949363E12
:10145000414141227F4141221C7F494949417F0945
:101460000909013E4149493A7F0808087F41417F07
:1014700041412040413F017F081422417F404040CC
:10148000407F020C027F7F0408107F3E4141413EB5
:101490007F090909063E4141C1BE7F091929462637
:1014A0004949493201017F01013F4040403F1F202F
:1014B00040201F3F4038403F631408146307087002
:1014C00008076151494543007F414100020408106B
:1014D000200041417F000804020408404040404091
:1014E000000609090620545454787F44444438388F
:1014F00044444428384444447F385454541808FE23
:1015000009010218A4A4A4787F0404047800447D8F
:1015100040000080847D00417F10284400417F40CE
:10152000007C047C04787C04040478384444443807
:10153000FC2424241818242424FC7C08040408080F
:1015400054545420043F4440203C4040403C1C2024
:1015500040201C3C4030403C44281028441CA0A0A3
:10156000A07C4464544C4408083641410000FF000C
:101570000041413608080804081008FFFFFFFFFF7C
:0C158000A83F8D142000DA12A1C8AF00B3
:08158C000101881300000000BA
:00000001FF
