:040000006F1000205D
:10000400000000000000000046020000460200005C
:100014000000000046020000000000000000000094
:10002400460200004602000000000000000000003C
:10003400460200000000000046020000000000002C
:1000440046020000460200004602000000000000D4
:10005400460200004602000046020000460200007C
:10006400460200004602000046020000460200006C
:10007400460200004602000046020000460200005C
:10008400460200004602000046020000460200004C
:10009400460200004602000046020000460200003C
:1000A400460200004602000046020000460200002C
:1000B400460200004602000046020000460200001C
:1000C4004602000024080000460200004602000028
:0C00D40046020000460200004602000048
:1000E000B7F700E09C4737F700E03E951C47898F43
:1000F000E3CE07FE828079714ECE5EC6B70910FF4F
:10010000B70B00F122D426D252CC56CA5AC862C4C8
:1001100066C206D64AD0AA84214B37140140FD1B83
:10012000370C0003B70C0004FD19B70A4000370A6A
:10013000300093978401E18763D2070A8327048004
:10014000B3F77701B3E797012320F4807545493F62
:100150008327048065457D1BB3F73701B3E757015B
:100160002320F480B53F832704808604137BFB0F94
:10017000B3F73701B3E747012320F48093F4F40F7A
:10018000E3190BFA83270480370700F17D17F98FF5
:1001900037070004D98F2320F480754591378327D2
:1001A00004806545B3F73701B3E757012320F48096
:1001B000053F83270480B2509254B3F93701B3E965
:1001C00049012320348122540259F249624AD24A19
:1001D000424BB24B224C924C456182808327048073
:1001E000B3F77701B3E7870185B7411122C437140C
:1001F000014003270480B70700F126C29384F7FF6C
:10020000658FB707000306C65D8F2320E480654530
:10021000C13D03270480B70710FFFD177D8FB70787
:1002200040005D8F2320E48065455D3D8327048089
:1002300037070004B240E58FD98F2320F480224491
:1002400092444101828001A09387C18003C7470186
:1002500083C65701158F1377F70F6368A700DC4734
:100260000A053E950355E5FF8280198D1947330530
:10027000E5029C4B3E950355A5FF82809387C18084
:1002800003C7470183C65701158F1377F70F6368BC
:10029000A700DC470A053E950355E5FF8280198DCE
:1002A00019473305E5029C4B3E950355C5FF8280F7
:1002B0009387C18003C7470183C65701158F137702
:1002C000F70F6368A700DC470A053E950355C5FF95
:1002D0008280198D19473305E5029C4B3E950355E5
:1002E000E5FF8280B77702401307200A2396E700D4
:1002F0002397E7009387C180A38407002385070025
:1003000023840700238A0700A38A070023A007008D
:1003100023A207002381070213878702A381070214
:10032000D8C71387C7032382070298CB0547238BBF
:10033000E70023800702238DE700A38DE700056710
:1003400013078738239EE700239FE7008280B77753
:10035000024003D70700118B21C303D7E7004207F0
:100360004183136707012397E700B777024013071C
:10037000F0042391E7004205A38207004181239303
:10038000A700A384070003C747001377F70F13677D
:1003900037002382E700828003D7C70042074183EA
:1003A000136707012396E700C9B7797122D426D2D3
:1003B0004AD04ECE52CC56CA5AC89387C18006D670
:1003C0005EC662C405698569216AC16A2380070225
:1003D0009304F00F1384C18013090929138BF9E1E9
:1003E000130AFAE1FD1A034C0402137CFC0F631696
:1003F0000C00FD1493F4F40F99ECB25022540259FE
:10040000F249624AD24A424BB24B224C33359000F9
:1004100092544561828037B5030013050598C931B0
:10042000B777024003D7C700420741831377E7F14C
:10043000420741832396E70003D7C7004207418361
:10044000136707042396E70083D6C70003D7E700A6
:10045000C206420741831377E7F14207418323979E
:10046000E70003D7E700C18242074183136707040F
:100470002397E70083D7E7000947858B99E313F7B4
:1004800016008357840185468507C207C183231C54
:10049000F4001C406393D7046318F7082305040095
:1004A000834794009546850793F7F70FA304F4005C
:1004B0008347940093F7F70F63F1F602A304040057
:1004C00089471CC0B776024083D70600C207C183A4
:1004D000ED9BC207C1832390F6001440854763FB60
:1004E000D70249E7834784001547850793F7F70F3D
:1004F0002304F4008347840093F7F70F637CF7002D
:100500002304040023200400B7E700E037070200BB
:1005100023A2E718832B04001C402547636FF708CC
:100520008A07CA979C4382878947A3040400631CF7
:10053000F7028347A4009546850793F7F70F230535
:10054000F4008347A40093F7F70FE3F8F6F82305C8
:10055000040018C0B776024083D70600C207C183E3
:1005600093E747008DBF2305040085BF23040400E3
:1005700055B7B7E700E03707020023A2E7189D331D
:1005800085471CC01DA858401C406308F7023777F8
:100590000240930770072311F7008347470093F742
:1005A000C70F93E727002302F700B7E700E0A3880F
:1005B00007423707020023A2E7102322740125B562
:1005C0008347340293F7F70FEDDBA3010402B7E78B
:1005D00000E0370702000328C400144823A2E718EC
:1005E000A30A0400B70800F0370300C0294E9305A2
:1005F00020031946130540068347440193F7F70F7C
:10060000636AFC00B7E700E03707020023A2E710A7
:10061000914785BF13172C00B307E400BC47B3FE16
:10062000170163986E060347540193DE170193FE8A
:10063000FE0F1377F70F3307C702B38EAE0236975C
:100640002311D7010347540193DE870093FEFE0F69
:100650001377F70F3307C70293F7F707B38EAE028E
:1006600036972310D70103475401B387B702137796
:10067000F70F3307C70236972312F7008347540159
:10068000850793F7F70FA30AF400050C137CFC0F02
:10069000A5B793FEF73FA98393F7F73FB38ECE0339
:1006A0004297B387B7022310D7012311F700F1BF98
:1006B00058401C406307F70A8347A401834624027D
:1006C0001387290093F5F70F9D8AA606D98E034755
:1006D0006401B3F6460193F6F6F30D8B1A07D98E33
:1006E0000347440103465401F2071377F70F1376CB
:1006F000F60F118F6351B7080356C40151474206E4
:1007000041823356E6021387F9FF798E26060347A6
:100710005401D18F034644011377F70F2E971376B8
:10072000F60F118F7D170A072297035787021306CA
:1007300020033357C702370600031377F707518F9B
:10074000370600FD130606F8F18FD98F33F75701EE
:100750001945C1832312D4062313E4062314F40697
:10076000FD368347440293F7F70FE38807E423023B
:100770000402954739B51387F5FF0A0722970357F7
:1007800087022946B70500033357C7021377F73F9F
:100790001316A7004D8F518F4DBF8347340293F737
:1007A000F70FE38C07E0A3010402A5471CC0231C3C
:1007B000040021B585472300F4020347A4018347C1
:1007C000B4011377F70F93F7F70F631CF700035784
:1007D000C4018357E4014207C2074183C183E30E8A
:1007E000F7DC8347A401094593F7F70FA30DF40045
:1007F0008357C401C207C183231FF40023000402EE
:1008000083472402034764019D8BA60793E7770083
:100810000D8B1A07B3F76701D98F2312F406053E33
:10082000A94785B35D713AD2377702403ED08347FE
:10083000970086C696C49AC29EC022DE26DC2ADABB
:100840002ED832D636D442CE46CC72CA76C87AC6B4
:100850007EC493F70702B5CB8347970085468D8BFF
:10086000639BD7040357A70095464207418363F46F
:10087000E6049386C18003D446069384C18013178F
:1008800004014187634D070E1D66618E1377F401E5
:10089000631F06100D466302C70E19466307C71093
:1008A000631FF70C2382E60283C72602850793F7AE
:1008B000F70F2381F602377702408347970093F7BB
:1008C000F70F93E70702A304F700B777024003C7C7
:1008D000970062076187635D070403D7C7008546F9
:1008E000420741833D9B420741832396E70003D79C
:1008F000E700420741833D9B420741832397E7007E
:10090000130770072391E70003C747001377C70F4A
:10091000136727002382E7001387C180A301D70252
:1009200003C79700136707F81377F70FA384E7004F
:10093000377702408347970093F7070491CB8347AB
:10094000970093F7F70F93E70704A304F700593ACA
:100950007254B640A64216438643E2545255C255DD
:100960003256A256125782577248E248524EC24E31
:10097000324FA24F6161730020309D479CC0130528
:10098000005AEFF0EFF5A381040203C76401935707
:1009900094009D8BA6070D8B1A0793E71700D98F3C
:1009A00009452392F406653239B7A147C1BFE31860
:1009B000F7FC8D479CC09357C4009D8B238AF4009D
:1009C000935764008D8B238BF40013874406814773
:1009D000F146138684040507E383D7FA034517001D
:1009E000B305F60085072380A500F5B7411122C4A1
:1009F0003714014083270480370700F17D17F98FF2
:100A00003707000306C6D98F2320F4806545EFF031
:100A10002FED83270480370710FF7D17F98F3707E5
:100A20003000D98F2320F4802244B2401305800780
:100A300041016FF04FEC411106C622C426C22A8440
:100A4000AE846D370145EFF00FEB138504FB137592
:100A5000F50FEFF04FEA19453305A4023989EFF09D
:100A60008FE919453305A402118513650501EFF0DF
:100A70008FE8EFF08FF723848180B2402244A38473
:100A80009180924441018280411106C622C4B93F3F
:100A900013050004EFF02FE6130400407D14420418
:100AA00001454180EFF02FE575F8EFF00FF4224497
:100AB000B240814501454101BDBF411122C41544E9
:100AC0003304850206C626C24AC00D37130500044A
:100AD000EFF06FE201450569EFF0EFE1930404F6F2
:100AE000130454F6C2044204C18041801309892BC7
:100AF000A687CA97850403C50700C204C180EFF02A
:100B00008FDFE31794FEEFF04FEE83C781808507F8
:100B100093F7F70F2384F1805147637DF70083C576
:100B200091802244B2409244024985059D89014545
:100B3000410111B7B24022449244024941018280EE
:100B4000AA8793F707061375F50791C3BDB7A947A1
:100B50006318F50083C5918085059D890145E1BD38
:100B6000B5476315F50083C59180CDBF82800148EC
:100B700063DC0500B305B040E205E185635605007E
:100B80003305A0401308D002930800026358060002
:100B90003306C0406206618693080003D147814650
:100BA000254E63D3C70A8280BE86B377B50213F79A
:100BB000F70F6370FE08130777033355B502001073
:100BC0001377F70F3303D400938716002306E3FE51
:100BD00093F7F70F71F9630C08001307000363889C
:100BE000E800A2978906238607FF93F7F60F3E8752
:100BF00063C4C704630D0800930600036399D8001B
:100C000014108507369793F7F70F230607FF138411
:100C1000F7FF64001374F40F2694034504000D37A6
:100C2000A2877D14E39BF4FEB25022549254456196
:100C300082801307070351B714108507369793F77F
:100C4000F70F230617FF65B7797106D622D426D28F
:100C5000A9BF411122C483C5318026C2AA84FD15D3
:100C600093F5F50F514506C6F93313050002B1356A
:100C70001387C18083464701A28793F6F60F63F37B
:100C800096020547A381E18083C531805145FD155A
:100C900093F5F50F4D332244B24092441305C0033F
:100CA000410121BD81E403474701E9BFA381918050
:100CB000E1BF411126C2B704002083C5240022C42D
:100CC0002A84FD1593F5F50F014506C6AD331305CE
:100CD0000002E5339305F4FF014593F5F50F2381F9
:100CE0008400913B2244B24092441305A00241018A
:100CF000E9B31D7126DAA40022DC4ED652D456D2B6
:100D00005AD05ECE62CC06DE4AD82E84B2C4B6C6B5
:100D1000BAC8BECAC2CCC6CE26C693095002130AB0
:100D20000003A54A294B930B3007130C30060345EB
:100D3000040009EDF2506254D2544259B259225A79
:100D4000925A025BF24B624C256182806306350148
:100D50000504FD332689A1A883471400638C37015D
:100D600009040147639647018347040005470504CA
:100D7000014639A8130550028933834724000D0426
:100D8000CDB7B30766030504B6973E968347F4FFD5
:100D9000938607FDE3F7DAFE19C33306C040639D6F
:100DA000770113894400844003C5040019E1CA8413
:100DB000BDBF85047133CDBF6398870103C50400AF
:100DC00013894400B53BE5B7B5D7130750076389CE
:100DD000E70213074006638DE70013078007638768
:100DE000E702130720068945638DE7007D149DB750
:100DF0006206138944006186D95588408D3B45BF02
:100E0000A9456206138944006186C5BFC145D5BFA7
:100E100041114AC003C9318022C42A844A8526C2AE
:100E200006C6EFF06FC2B7040020636885024A85EA
:100E3000EFF08FC12390A40099451545ED3E224463
:100E400003D60400B2409244024985650565938546
:100E5000C54A130505B4410169BD4A85EFF00FC2CB
:100E60006366A4004A85EFF06FC1E9B72390840060
:100E7000E1B7797126D256CAB704004022D44AD0CD
:100E80004ECE52CC06D605440131938AC180056905
:100E90008569FD14056A83C74A0193F7F70F63F26A
:100EA000870203C531807533B70700202254B25042
:100EB00092540259F249624AD24A03C52700456159
:100EC000CDBB83C74A0103C75A01998F93F7F70F28
:100ED00063EA870203A7CA00B30794008A07BA9798
:100EE00083D62700228536C6EFF08FBCB2462A870C
:100EF000228693058A4B130509B40504DD3B137460
:100F0000F40F51BF2285EFF02FB42AC62285EFF0EF
:100F1000EFB6B2462A8722869385C94CE9BFB71738
:100F2000014003A70780B70610FFFD163971758FC2
:100F3000B706400006DE22DC26DA4AD84ED652D466
:100F400056D25AD05ECE62CC66CA6AC86EC6558F7B
:100F500023A0E78003A70780B70600F1FD16758F71
:100F6000B7060004558F1386078023A0E7809307F8
:100F700000025CCA930700045CCA8D3C0145056908
:100F80000144EFF04F97814413098949C549B307DC
:100F9000990003C507008504EFF0EF95E39934FF4E
:100FA000EFF0AFA4D534856985659385054E13852B
:100FB00009B48133B7170240984FB7060200B7143F
:100FC00001401367170198CFD84BCE8A558FD8CBE5
:100FD00083A744C0B706004437070140A207A18396
:100FE000D58F23A2F4C01C4F93E707301CCF938703
:100FF000C18093874706C20737770240C183231811
:10100000F700F977A1072310F700F157A304F700C1
:10101000EFF0AFB91389C18001E985659385054F6C
:10102000138509B4F93101A0A93583A70480B70657
:10103000F1FFFD16C19B93E7870023A0F48085474D
:1010400023A8F48083A70480856C93F7F7F093E7D7
:10105000070823A0F480894723A8F48083A704808D
:10106000056D856DF58FB7060800D58F23A0F48038
:10107000C14723A8F480B714014083A78480858BDF
:1010800095CB83A78480898B99EB03C531800505B7
:101090001375F50F7D3E83A78480898BEDDF83A7D1
:1010A0008480C18B9DC33755070013050530EFF0D1
:1010B0002F83E1B703C531807D151375F50F513EC0
:1010C00083A78480858BEDDF6DBF8347490103478C
:1010D000590183C93180998F93F7F70F63E737037D
:1010E0000327C90093972900230D3901BA9783D7A5
:1010F000E7FF231EF900EFF04FAB19C14E85553EB7
:1011000083A78480C18BEDDF79BFEFF0FF97856700
:101110009385874F4E8613850AB4E13E4E85EFF0E6
:10112000AF922A8693850C5113850AB4D9364E8521
:10113000EFF0CF942A8693054D5213850AB4553E9D
:101140004E85EFF0EF962A8693858D5313850AB46A
:101150004D36370B002003550B005D3983A7848083
:10116000C18BEDDF375A070013050A30EFE05FF758
:10117000130CF00F130A0A3083A7848013870480AE
:1011800003550B00C18B91EF230D3901231EA900DC
:10119000EFF0AFA109C5B707002023813701D1398E
:1011A00085B71C47858B8DE71305250342054181D3
:1011B00085317D141374F40F6314840115446DBFDD
:1011C00083A78480858BFDFB5285EFE07FF1D5B747
:1011D0001C47898B9DE31305E5FC420541810D39D0
:1011E0007D141374F40FE30B84FD83A78480898B33
:1011F000F1F75285EFE0DFEEE5B713042003ADBF52
:1012000085679387E7F197F1FF1F9381A15F1741EE
:101210000020130121DF7D45731005BC13058008F4
:10122000732005308D4573904580130540004D8D2A
:101230007310553073901734B707002005679387F4
:1012400007001307C7549386818063E8D70293870A
:1012500081801387418963E8E702B7270240094785
:1012600098C3B717024023A2070037F700E095465E
:1012700014C3714798CF73002030104311079107B2
:1012800023AEC7FED9B7910723AE07FEE9B700002A
:1012900072050000BA05000086050000C0050000C8
:1012A000B0060000BA050000BA050000BA0500004B
:1012B0009A070000B4070000000000000000005F73
:1012C00000000007000700147F147F14242A7F2ADF
:1012D00012231308646236495522500004030000AB
:1012E000001C2241000041221C0014083E08140882
:1012F000083E080800806000000808080808006030
:1013000060000020100804023E5149453E44427FDF
:101310004040426151494622414949361814127FE2
:10132000102F494949313E494949320301710907A2
:101330003649494936264949493E003636000000BB
:1013400080680000000814220014141414140022F1
:1013500014080002015109063E415D555E7C1211E0
:10136000127C7F494949363E414141227F41412219
:101370001C7F494949417F090909013E4149493AD0
:101380007F0808087F41417F41412040413F017F64
:10139000081422417F404040407F020C027F7F04BE
:1013A00008107F3E4141413E7F090909063E414107
:1013B000C1BE7F09192946264949493201017F01E9
:1013C000013F4040403F1F2040201F3F4038403FEA
:1013D0006314081463070870080761514945430006
:1013E0007F41410002040810200041417F000804B1
:1013F00002040840404040400000030400205454D0
:1014000054787F444444383844444428384444445D
:101410007F385454541808FE09010218A4A4A47873
:101420007F0404047800447D40000080847D0041F6
:101430007F10284400417F40007C047C04787C04B9
:101440000404783844444438FC2424241818242400
:1014500024FC7C080404080854545420043F4440ED
:10146000203C4040403C1C2040201C3C4030403C44
:1014700044281028441CA0A0A07C4464544C440878
:10148000083641410000FF000041413608080804C9
:10149000081008FFFFFFFFFFA83F8D142000210068
:1014A0007F22003FDA12A1C8AF0000003E2536645B
:1014B0006D56203C00000000202825642925366454
:1014C0006D56202535646D4120000000205B2564A9
:1014D0005D2536646D562D2535646D56200000005F
:1014E000436F6E6E656374696E672E2E2E0000006A
:1014F0004641494C4544000053656C656374207651
:101500006F6C74616765206F66205B25645D0A00FF
:101510006D696E20766F6C746167653A2537646D0E
:10152000560000006D617820766F6C746167653AD3
:101530002537646D560000006D6178206375727206
:0C154000656E743A2537646D41000000B0
:08154C008813010100000000FA
:00000001FF
